:020000040800F2
:10000000800400209D010008A5010008A701000848
:10001000A9010008AB010008AD01000800000000C4
:10002000000000000000000000000000AF01000818
:10003000B101000800000000B3010008B50100088C
:10004000B7010008B7010008B7010008B7010008B0
:10005000B7010008B7010008B7010008B7010008A0
:10006000B7010008B7010008B7010008B701000890
:10007000B7010008B7010008B7010008B701000880
:10008000B7010008B7010008B7010008B701000870
:10009000B7010008B7010008B7010008B701000860
:1000A000B7010008B7010008B7010008B701000850
:1000B000C90B0008A50C0008090E0008B7010008CC
:1000C000B7010008B7010008B7010008B701000830
:1000D000B7010008BD160008B7010008B701000805
:1000E000B7010008B7010008B7010008B701000810
:1000F000B7010008B7010008B7010008B701000800
:10010000B7010008B7010008410F0008B701000857
:10011000B7010008B7010008F510000889110008B0
:10012000B7010008B7010008B7010008B7010008CF
:10013000B7010008B7010008B7010008B7010008BF
:10014000B7010008B7010008B7010008B7010008AF
:10015000B7010008B7010008B7010008B70100089F
:10016000B7010008B7010008B7010008B70100088F
:10017000B7010008B7010008B7010008B70100087F
:10018000B7010008B7010008DFF80CD000F018F83C
:10019000004800470D1B00088004002006488047E7
:1001A00006480047FEE7FEE7FEE7FEE7FEE7FEE75C
:1001B000FEE7FEE7FEE7FEE73D0A000889010008CA
:1001C000064C074D06E0E06840F0010394E80700A4
:1001D00098471034AC42F6D3FFF7DAFF081E000848
:1001E000281E000810B500F003F800F013F810BD49
:1001F00008B537208DF8000001208DF8010000209F
:100200008DF8020001208DF80300684600F07CFAAA
:1002100008BD00000EB50121202000F0D1FA4FF4F6
:100220009670019042F2CF00ADF800000020ADF8CA
:100230000200ADF808006946064801F0F3F9012212
:100240001146044801F018F90121024800F0C4FFEA
:100250000EBD00000014004010B5E2207249887005
:10026000724890ED000ADFED720A20EE200ABDEE22
:10027000C00A10EE104A0120C870A3200871204661
:10028000E11704EB1141090C674A5171E11704EBC6
:100290001161090A9171E11704EB11610912A4EBD4
:1002A0000121D171092001F0FBFA624890ED000AAA
:1002B000DFED5F0A20EE200ABDEEC00A10EE104A04
:1002C00001205949C870A42008712046E11704EBA9
:1002D0001141090C544A5171E11704EB1161090AEB
:1002E0009171E11704EB11610912A4EB0121D171A5
:1002F000092001F0D5FA504890ED000ADFED4C0AD4
:1003000020EE200ABDEEC00A10EE104A0120464938
:10031000C870A52008712046E11704EB1141090CB3
:10032000414A5171E11704EB1161090A9171E1171A
:1003300004EB11610912A4EB0121D171092001F034
:10034000AFFA3E4890ED000ADFED390A20EE200AB0
:10035000BDEEC00A10EE104A01203349C870A62035
:1003600008712046E11704EB1141090C2E4A517126
:10037000E11704EB1161090A9171E11704EB1161B6
:100380000912A4EB0121D171092001F089FA2C484E
:1003900090ED000ADFED260A20EE200ABDEEC00A2D
:1003A00010EE104A01202049C870A720087120468D
:1003B000E11704EB1141090C1B4A5171E11704EBE1
:1003C0001161090A9171E11704EB11610912A4EBA3
:1003D0000121D171092001F063FA1A4890ED000A59
:1003E000DFED130A20EE200ABDEEC00A10EE104A1F
:1003F00001200D49C870A82008712046E11704EBC0
:100400001141090C084A5171E11704EB1161090A05
:100410009171E11704EB11610912A4EB0121D17173
:10042000092001F03DFA10BD00000020540000201A
:1004300000007A44580000205C000020600000208A
:10044000640000206800002010B5E1202C4988706D
:100450002C48446B0120C8700C2008712046E1171D
:1004600004EB1141090C264A5171E11704EB1161AB
:10047000090A9171E11704EB11610912A4EB012142
:10048000D171092001F00CFA1E48846B01201C492F
:10049000C8700D2008712046E11704EB1141090CCA
:1004A000174A5171E11704EB1161090A9171E117C3
:1004B00004EB11610912A4EB0121D171092001F0B3
:1004C000EFF91148046801200D49C8700E20087129
:1004D0002046E11704EB1141090C094A5171E1175B
:1004E00004EB1161090A9171E11704EB1161091222
:1004F000A4EB0121D171092001F0D2F910BD000057
:1005000000000020000001403404014010B5E1204B
:100510000F4988700F4804680120C8700F200871C7
:100520002046E11704EB1141090C094A5171E1170A
:1005300004EB1161090A9171E11704EB11610912D1
:10054000A4EB0121D171092001F0AAF910BD00002E
:10055000000000201000002010B5E120294988701B
:1005600029480068002805DA27480068444200202E
:10057000C87004E02448046801202249C87004209F
:10058000204908712046E11704EB1141090C1D4A6E
:100590005171E11704EB1161090A9171E11704EB44
:1005A00011610912A4EB0121D171092001F078F940
:1005B00016480068002806DA144800684442002003
:1005C0001049C87004E01148046801200D49C87042
:1005D00005200C4908712046E11704EB1141090C74
:1005E000084A5171E11704EB1161090A9171E11791
:1005F00004EB11610912A4EB0121D171092001F072
:100600004FF910BD00000020140000201800002049
:10061000F0B50A4600210023002400BF3DE001257B
:1006200005FA01F3156805EA03049C4234D1056814
:100630004F000326BE40B543056015794E00B54016
:100640000668354305601579012D02D01579022D14
:1006500016D185684F000326BE40B54385605579A5
:100660004E00B540866835438560456801268E405A
:10067000B5434560456896798E40B6B235434560CE
:10068000C5684F000326BE40B543C560D5794E000E
:10069000B540C6683543C560491C1029BFD3F0BDBD
:1006A000F0B5002300244D07ED0E02FA05F3CE103D
:1006B00000F1200555F826504E07F70E0F26BE40D4
:1006C000B543CF1000F1200646F82750CE1000F1B8
:1006D000200555F8265045EA0304CE1000F1200508
:1006E00045F82640F0BD0246002013690B400BB1CF
:1006F000012000E00020704710B500F0A3FA00F0E0
:10070000F7FA00F0A7FB10BD70B5002100230F22FF
:10071000C4781CB3174C246804F4E064C4F5E064A6
:10072000C4F30721C1F10404E3B20A4144789C40B8
:10073000E1B28478144021430C07210E0E4C057859
:100740006155047804F01F050124AC4005786D1153
:10075000AD0005F1E025C5F8004109E0047804F09A
:100760001F050124AC40054D0678761145F826405A
:1007700070BD00000CED00E000E400E080E100E06E
:1007800002490143024A1160704700000000FA0567
:100790000CED00E010B501F0AFFA01F08DFA10BDDC
:1007A00029B1064A12680243044B1A6004E0034A66
:1007B00012688243014B1A607047000030380240D3
:1007C00029B1064A12680243044B1A6004E0034A46
:1007D00012688243014B1A607047000040380240A3
:1007E00029B1064A12680243044B1A6004E0034A26
:1007F00012688243014B1A607047000020380240A3
:1008000029B1064A12680243044B1A6004E0034A05
:1008100012688243014B1A6070470000443802405E
:1008200029B1064A12680243044B1A6004E0034AE5
:1008300012688243014B1A6070470000243802405E
:10084000F0B5002100220024022500260223324FA9
:100850003F6807F00C0121B1042905D0082937D1E0
:1008600005E02E4F076036E02D4F076033E02A4F3A
:100870003F1F3F68C7F38056274F3F1F3F6807F071
:100880003F036EB1264FB7FBF3F7DFF88CC0ACF136
:10089000040CDCF800C0CCF3881C07FB0CF40CE063
:1008A0001E4FB7FBF3F7DFF870C0ACF1040CDCF8B7
:1008B00000C0CCF3881C07FB0CF4174F3F1F3F68A8
:1008C000C7F301477F1C7D00B4FBF5F7076002E02A
:1008D000124F076000BF00BF0F4F3F6807F0F001E5
:1008E0000909104F7A5C0768D74047600A4F3F6894
:1008F00007F4E051890A0B4F7A5C4768D74087605C
:10090000054F3F6807F46041490B064F7A5C476822
:10091000D740C760F0BD0000083802400024F40052
:1009200000127A006E0000200CB5002001900090AB
:100930003448006840F480303249086000BF3148D4
:10094000006800F4003000900198401C019000986D
:1009500018B90198B0F5A04FF1D12A48006800F409
:10096000003010B10120009001E0002000900098BC
:10097000012846D123484030006840F0805021498A
:10098000403108602048006840F440401E4908603B
:100990001C48083000681B49083108600846006898
:1009A00040F4004008600846006840F4A050086029
:1009B0001648091F0860081F006840F08070091F72
:1009C000086000BF0F48006800F000700028F9D0F0
:1009D00040F205700E4908600A480830006820F0AF
:1009E00003000849083108600846006840F002002A
:1009F000086000BF03480830006800F00C000828B9
:100A0000F8D10CBD00380240007000400854400787
:100A1000003C0240042808D14FF0E021096941F070
:100A200004014FF0E022116107E04FF0E021096975
:100A300021F004014FF0E0221161704710B5154814
:100A4000006840F47000134908601348006840F0E3
:100A500001001149086000200F49083108600E4864
:100A600000680E4908400C4908600D48091D0860DF
:100A7000081F006820F48020091F08600020064934
:100A80000C310860FFF750FF4FF0006001498039DA
:100A9000086010BD88ED00E000380240FFFFF6FE60
:100AA00010300024F0B50C46154600210022068CBB
:100AB0004FF6FE773E400684018B028C4FF60C7693
:100AC00031407E1C06EA03162E4331434FF6F5767D
:100AD000324044F00106324301830284F0BDF0B598
:100AE0000C461546002100220026078C4FF6EF7CAD
:100AF00007EA0C070784018B028C4FF6FF7707EAA1
:100B0000041640F6FF4739404FF6FF7707EA0337F0
:100B100039434FF6FF7707EA052739434FF65F77EA
:100B20003A4046F010073A4301830284F0BDF0B525
:100B30000C461546002100220026078C4FF6FF6C5C
:100B400007EA0C070784818B028C4FF6FF7707EAD0
:100B500004264FF60C7739404FF6FF7707EA031764
:100B60002F4339434FF2FF573A4046F480773A43D8
:100B700081830284F0BDF0B50C46154600210022A9
:100B80000026078C4EF6FF7C07EA0C070784818B52
:100B9000028C4FF6FF7707EA043640F6FF473940EC
:100BA0004FF6FF7707EA052739434FF6FF7707EA45
:100BB0000337394345F6FF773A4046F480573A43C6
:100BC00081830284F0BD000010B50121880700F088
:100BD0000BFC68B30021174800F0FEFA002116480C
:100BE00000F0FAFA134800F0FCFB47F23051081A03
:100BF00012490860104800F0F4FB47F23051081A1F
:100C00000F49086047F230510A4800F0DCFC47F217
:100C10003051094800F0D7FC0121064800F0DCFA09
:100C20000121054800F0D8FA0121880700F0CEFA2A
:100C300010BD000000080040000400401400002027
:100C4000180000201FB501210846FFF7B9FD40F24A
:100C5000F310029042F2CF00ADF804000020ADF88E
:100C60000600ADF80C0001A94FF0804000F0DAFC5E
:100C700001221146900700F0FFFB0121880700F0D8
:100C8000ABFA1C208DF8000001208DF80100032034
:100C90008DF8020001208DF803006846FFF734FD4F
:100CA0001FBD000010B501210E4800F09DFBC0B132
:100CB0000D480088401C00B20B49088000214FF00D
:100CC000804000F080FC47F23051064800F07BFC89
:100CD00047F23051054800F076FC0121014800F050
:100CE00075FA10BD000400406C00002000080040B0
:100CF00000B589B001210220FFF762FD0121022029
:100D0000FFF74EFD01210846FFF74AFD2020049021
:100D100002208DF8140003208DF8150001208DF8B5
:100D200016008DF8170004A93448FFF771FC402025
:100D3000049002208DF8140003208DF81500012086
:100D40008DF816008DF8170004A92D48FFF760FCF8
:100D5000022205212948FFF7A3FC02220621284888
:100D6000FFF79EFC274800F053FA01A800F09CFC16
:100D70000020ADF80400ADF806004EF660200290A9
:100D80000020ADF80C0001A91E4800F04BFC042027
:100D9000ADF818000A20ADF81A000120ADF81C00CB
:100DA0000020ADF81E00ADF8200000231A460121F6
:100DB000144800F0F5FA06A9124800F026FB0122BB
:100DC0001146104800F058FB47F230510D4800F032
:100DD000FAFB01210B4800F0FFF91D208DF80000FF
:100DE00000208DF801008DF8020001208DF803002D
:100DF0006846FFF789FC09B000BD0000000402400E
:100E0000000002400004004010B501210E4800F02F
:100E1000EBFAC0B10D480088401C00B20B490880B5
:100E200000214FF0804000F0CEFB47F230510848DF
:100E300000F0C9FB47F23051034800F0C4FB012128
:100E4000014800F0C3F910BD000800406C0000200C
:100E50000004004000B589B001210420FFF7B0FC78
:100E600001210820FFF79CFC4FF440500490022021
:100E70008DF8140003208DF8150001208DF8160060
:100E80008DF8170004A92C48FFF7C2FB02220C21A1
:100E90002948FFF705FC02220D212748FFF700FC37
:100EA000264800F0B5F901A800F0FEFB0020ADF8DF
:100EB0000400ADF806004EF6602002900020ADF868
:100EC0000C0001A91D4800F0ADFB0420ADF818008E
:100ED0000A20ADF81A000120ADF81C000020ADF882
:100EE0001E00ADF8200000231A460121134800F02F
:100EF00057FA06A9114800F088FA012211460F4856
:100F000000F0BAFA47F230510C4800F05CFB0121C6
:100F10000A4800F061F91E208DF8000000208DF8CD
:100F200001008DF8020001208DF803006846FFF7EC
:100F3000EBFB09B000BD0000000C024000080040BF
:100F400010B501215E4800F04FFA002875D000F07E
:100F500045FF00F07DFE00F03DFF00EE100AB8EE08
:100F6000400A584890ED001A5748D0ED000AF8EEB4
:100F7000E00A01EE200A006854490968401A00EEB0
:100F8000900AF8EEE00A524890ED001A01EE200AAD
:100F9000BDEEC00A4F4880ED000A0068B0F5FA6F58
:100FA00006DB40F2CF704C4908604A4908600FE008
:100FB0004848006840F2E731884205DA0846464969
:100FC00008604449086003E04248006842490860FC
:100FD0004248006801285BD0404800687F2857D00D
:100FE0003F480068142829DD3E48D0ED000A364805
:100FF00090ED000AB8EEC00A20EE800A006833497E
:101000000968401A00EE900AF8EEE00A364890EDC2
:10101000001A01EE200ABDEEC00A344880ED000A35
:10102000006841F28731081A314948632F48006847
:1010300041F2873108442E4988633CE02948D0EDCD
:10104000000A214890ED000AB8EEC00A20EE800A9E
:1010500000681E490968401A00EE900AF8EEE00A9E
:10106000214890ED001A01EE200ABDEEC00A1F488B
:1010700080ED000A006841F63F71081A1C49486378
:101080001A48006841F63F7108441949886312E024
:1010900012480068012807D141F28730144948639B
:1010A00040F2E730886306E040F2E73010494863D9
:1010B00041F2873088630121014800F08AF810BDB1
:1010C000000C0040600000203C0000204000002098
:1010D000680000205000002038040140100000206B
:1010E00018000020540000205C0000204800002070
:1010F0000000014010B500240121214800F074F9DE
:1011000000283CD008211F48FFF7EDFA04430421D2
:101110001C48FFF7E8FA44EA4000C4B2022119482B
:10112000FFF7E1FA44EA8000C4B201211548FFF755
:10113000DAFA44EAC000C4B280211248FFF7D3FAB9
:1011400044EA0010C4B240210E48FFF7CCFA44EA4A
:101150004010C4B220210B48FFF7C5FA44EA8010C2
:10116000C4B210210748FFF7BEFA44EAC010C4B267
:10117000204600F099FC0121014800F02AF810BD3A
:10118000001000400018024010B50121084800F08E
:101190002BF9012807D1FFF7DFF9FFF755F9FFF722
:1011A000B5F9FFF759F80121014800F012F810BD18
:1011B0000014004021B1028842F08002028004E065
:1011C00002884FF67F731A4002807047CA4302823A
:1011D0007047CA430282704721B1028842F001027F
:1011E000028004E002884FF6FE731A4002807047C6
:1011F00031B1B0F8442042F40042A0F8442005E0A8
:10120000B0F84420C2F30E02A0F84420704700005A
:1012100010B504465548844208D101210846FFF71D
:10122000FFFA00210120FFF7FBFA9DE0B4F1804FA7
:1012300008D101210846FFF7D3FA00210120FFF76A
:10124000CFFA91E04A48844208D101210220FFF7F9
:10125000C7FA00210220FFF7C3FA85E0454884421F
:1012600008D101210420FFF7BBFA00210420FFF779
:10127000B7FA79E04048844208D101210820FFF7FD
:10128000AFFA00210820FFF7ABFA6DE03B4884423B
:1012900008D101211020FFF7A3FA00211020FFF749
:1012A0009FFA61E03648844208D101212020FFF7EF
:1012B00097FA00212020FFF793FA55E03148844245
:1012C00008D101210220FFF7ABFA00210220FFF72D
:1012D000A7FA49E02C48844209D101210804FFF70C
:1012E0009FFA00214FF48030FFF79AFA3CE027483C
:1012F000844209D101214804FFF792FA00214FF4FA
:101300000030FFF78DFA2FE02148844209D10121F6
:101310008804FFF785FA00214FF48020FFF780FA58
:1013200022E01C48844208D101214020FFF758FAEE
:1013300000214020FFF754FA16E01748844208D1F4
:1013400001218020FFF74CFA00218020FFF748FAA6
:101350000AE01248844207D101218015FFF740FAC4
:101360000021A015FFF73CFA10BD0000000001406D
:101370000004004000080040000C00400010004045
:1013800000140040000401400040014000440140BE
:101390000048014000180040001C004000200040B0
:1013A000F0B50C4615461E46002100220023018997
:1013B000028B038C4FF6F877394021434FF6FC47F8
:1013C0003A4040F201173A434FF6DD773B404FF683
:1013D000FF7707EA06172F433B430181028303840B
:1013E000F0BD0146486A704730B502460020002330
:1013F0000024158A05EA0103958905EA010413B161
:101400000CB1012000E0002030BD70B505460C464F
:10141000208850B92389A28861882846FFF742FBBB
:10142000E188284600F0D1F825E0208804280AD178
:101430002389A28861882846FFF751FBE188284666
:1014400000F0CCF817E0208808280AD12389A28868
:1014500061882846FFF76BFBE188284600F0CBF84F
:1014600009E02389A28861882846FFF784FBE18888
:10147000284600F0C9F870BD1AB183890B438381F7
:1014800002E083898B4383817047000070B500249C
:1014900000220023058C4FF6FE7635400584028C31
:1014A0008388048B4FF68F752C40B51E2C400D8819
:1014B0002C43751E2A408D892A434D882A43104D9E
:1014C000A84202D00F4DA84213D14FF6F7752A401B
:1014D000CD892A434FF6FB752A408D882A434FF663
:1014E000FF652B404FF6FF552B400D8A2B434D8A4D
:1014F0002B43838004838D684563028470BD0000A4
:10150000000001400004014070B5002400220023C7
:10151000058C4FF6EF7635400584028C8388048B6A
:1015200048F6FF752C404FF6FF452C400D884FF6CE
:10153000FF7606EA05252C434FF6DF752A408D8994
:1015400006EA05152A434D8806EA05152A43154D76
:10155000A84202D0144DA8421DD14FF67F752A40F3
:10156000CD894FF6FF7606EA05152A434FF6BF757B
:101570002A408D8806EA05152A434FF6FF352B4091
:101580004FF2FF752B400D8A06EA85052B434D8AE5
:1015900006EA85052B43838004838D688563028476
:1015A00070BD000000000140000401400A46002117
:1015B000018B4FF2FF7319404FF6FF7303EA0223CA
:1015C00019430183704741627047028B4FF6F373F2
:1015D0001A400283028B0A4302837047028B4FF248
:1015E000FF331A400283028B4FF6FF7303EA012395
:1015F0001A4302837047828B4FF6F3731A4082833B
:10160000828B0A4382837047828B4FF2FF331A40EA
:101610008283828B4FF6FF7303EA01231A4382838E
:101620007047000000220288184B98420ED0184BD9
:1016300098420BD0B0F1804F08D0164B984205D09D
:10164000154B984202D0154B984204D14FF68F7338
:101650001A404B881A43124B984207D0114B9842BC
:1016600004D04FF6FF431A400B891A4302804B689F
:10167000C3620B880385054B984202D0044B984205
:1016800001D18B7A038601238382704700000140D9
:10169000000401400004004000080040000C00402D
:1016A00000100040001400404FF0FF314160002165
:1016B00001800181418081727047000010B50C48A3
:1016C000008800F0080010B109488088C4B240F2D8
:1016D0002551074800F027F840B105488088C4B27A
:1016E000002240F22551024800F047F810BD0000EA
:1016F0000010014021B1828942F40052828104E04D
:1017000082894DF6FF731A4082817047024600209D
:10171000B1F5007F00D100BF13880B400BB1012051
:1017200000E00020704770B5024600240023002529
:10173000002040F66A16B14200D100BFC1F3421545
:1017400001F01F03012606FA03F3012D02D1968949
:10175000334006E0022D02D1168A334001E0968A1A
:1017600033400C12012606FA04F41688344013B1F3
:101770000CB1012000E0002070BDF0B5034600244C
:1017800000260025002040F66A17B94200D100BFAC
:101790001846C1F3421401F01F06012707FA06F5A7
:1017A000012C01D10C3004E0022C01D1103000E0FA
:1017B00014301AB107682F43076002E00768AF438F
:1017C0000760F0BD2DE9FF4705460E460024A146FF
:1017D00000BFA046B08900B100BF2C8A24F4405459
:1017E000F08804432C82AC8941F20C608443B088B9
:1017F00031890843718908430443AC81AC8A24F4DD
:101800004074B0890443AC826846FFF719F8204859
:10181000854202D01F48854202D1DDF80C9001E0DC
:10182000DDF80890A88900F4004040B109EBC90038
:1018300000EB091031684900B0FBF1F707E009EB54
:10184000C90000EB091031688900B0FBF1F7642092
:10185000B7FBF0F004012009642101FB1078A8898E
:1018600000F4004040B1322000EBC800B0FBF1F0C2
:1018700000F00700044308E0322000EB0810642168
:10188000B0FBF1F000F00F0004432C81BDE8FF87AE
:101890000010014000140140C1F30802828070472B
:1018A00070B5054600240DE00848015D0848FFF7C3
:1018B000F3FF00BF40210648FFF728FF0128F9D1B8
:1018C000601CC4B2AC42EFDB70BD00000000002021
:1018D0000010014002E008C8121F08C1002AFAD116
:1018E00070477047002001E001C1121F002AFBD1A0
:1018F000704700001CB501210846FEF751FF072282
:1019000009211048FEF7CCFE07220A210D48FEF7F8
:10191000C7FE4FF40070009002208DF804008DF88F
:10192000050000208DF806008DF80700694605487F
:10193000FEF76EFE4FF48060009069460148FEF7A6
:1019400067FE1CBD0000024010B5FFF7D3FF00F09A
:1019500013F800F001F810BD08B525208DF800003F
:1019600000208DF801008DF8020001208DF80300A1
:101970006846FEF7C9FE08BD1FB501211020FEF71D
:101980003FFF4FF4E13000900020ADF80400ADF8C7
:101990000600ADF80800ADF80C000C20ADF80A0008
:1019A00069460748FFF70EFF012240F2255104481F
:1019B000FFF7E3FE01210248FFF79CFE1FBD000078
:1019C0000010014010B504466FF00400FFF722F844
:1019D000E11704EB5171C1F3C701074A11701046BA
:1019E000007800EB4001C1EBC0104FF6FF7101EA37
:1019F000C0000249088010BD0A0000200C00002031
:101A00001CB501214020FEF7CBFEFF2000900020F6
:101A10008DF804008DF8070002208DF80500694656
:101A20000148FEF7F5FD1CBD0018024010B5FFF798
:101A3000E7FF00F017F800F001F810BD08B54FF40B
:101A4000C060FEF79DFE36208DF8000000208DF866
:101A500001008DF8020001208DF803006846FEF7B2
:101A600053FE08BD0EB501211020FEF7A9FE4FF46C
:101A70009670019042F2D000ADF800000020ADF861
:101A80000800ADF8020069460648FFF7CBFD0122C9
:101A900011460448FFF7F0FC01210248FFF79CFBC8
:101AA0000EBD00000010004002280AD10121144A96
:101AB00011600021134A11604FF49671124A1160AF
:101AC0001CE003280AD17F210D4A11604FF4967162
:101AD0000C4A116000210C4A11600FE012280DDB46
:101AE000F2280BDC014600EBD1725210521E044B5F
:101AF0001A60C821034A1160034A11607047000050
:101B0000100000201C00002020000020A820FFF76B
:101B100059FFFFF719FFFEF765FB00F01BF900F016
:101B20004FF8FFF783FFFEF7E7FDFEF733FE00BF38
:101B3000FEE700001CB501210846FEF731FE012139
:101B40000220FEF72DFE01211020FEF729FE0220C3
:101B50008DF8040000208DF806008DF807000320A2
:101B60008DF805004FF42060009069461148FEF79B
:101B70004FFD8020009069460F48FEF749FD012087
:101B8000009069460D48FEF743FD012209210948EE
:101B9000FEF786FD01220B210648FEF781FD01229A
:101BA00007210548FEF77CFD012200210348FEF7CE
:101BB00077FD1CBD001002400000024000040240FE
:101BC00010B5FFF7B7FF00F001F810BD00B589B000
:101BD00001210846FEF714FE1C48FFF719FB44F2EA
:101BE0009F1007900020ADF81800ADF82000ADF868
:101BF0001A008DF8220006A91448FFF713FD602093
:101C0000ADF804000120ADF806000020ADF8080092
:101C100042F20F7003900020ADF81000ADF81200F2
:101C2000ADF81400ADF8160001A90848FFF72EFC26
:101C300001A90648FFF768FC01210448FFF7CCFA28
:101C400001210248FFF7D4FA09B000BD00000140AD
:101C50000F4800680F4908600F4800680C49086089
:101C60000E4800680E490968401A0B4908600D4883
:101C700000680D4908600D4800680A4908600C4872
:101C800000680C490968401A08490860704700005C
:101C9000280000202C000020240000201C00002030
:101CA0001400002034000020380000203000002004
:101CB00020000020180000200EB501210820FEF7AA
:101CC0007FFD4FF4967001905320ADF80000002086
:101CD000ADF80800ADF8020069460648FFF7A2FC1F
:101CE000012211460348FFF7C7FB01210148FFF716
:101CF00073FA0EBD000C004008B532208DF80000CC
:101D000001208DF8010000208DF8020001208DF8DF
:101D100003006846FEF7F8FC08BD00001CB5012171
:101D20000420FEF73DFD8020009002208DF8040085
:101D300000208DF8060002208DF805006946044851
:101D4000FEF766FC032207210148FEF7A9FC1CBD33
:101D50000008024010B5FFF7E1FF00F001F810BDE8
:101D600000B589B001210220FEF74AFD42F20F7052
:101D70000790A720ADF818000020ADF82000ADF8BE
:101D80001A0006A91248FFF74DFC6020ADF80400C8
:101D90000120ADF8060040F2DB5003900020ADF8C2
:101DA000100001A90A48FFF7AFFB08210848FFF718
:101DB000FDFB01210648FFF7FDF901210448FFF76B
:101DC0000BFA01210248FFF713FA09B000BD000029
:101DD0000004014040F2DB507047000006480068F4
:101DE000064908600648006803490860054800681D
:101DF000403803490860704740000020440000203C
:101E00003C00002010000020281E000800000020D8
:101E100080000000D4180008A81E000880000020E0
:101E200000040000E4180008C0FB000000000000EF
:101E3000DD00000000000000400000000000000085
:101E40000000000000000000000000000000000092
:101E50000000000000000000000000000000000082
:101E60000000000000000000000000000000000072
:101E70000000000000000000000000000000F04131
:101E8000000000000000E0400000C0400000000032
:101E90000000A04000000000000001020304010255
:081EA000030406070809000015
:040000050800018965
:00000001FF
